:040000000C942D002F
:100004000C9400000C9400000C9400000C9400006C
:100014000C9400000C9400000C9400000C9400005C
:100024000C9400000C9400000C945D000C940000EF
:100034000C9400000C9400000C9400000C9400003C
:100044000C9400000C9400000C9400000C9400002C
:10005400000000000000F894EE27ECBBF1E0FBBFC9
:10006400EBBFE5BFF8E1F1BDE1BD8DE0A2E0BB2748
:10007400ED938A95E9F780E094E0A0E6ED9301978B
:10008400E9F7E8E5F0E085919591009761F0A59195
:10009400B59105901590BF01F00105900D9201975F
:1000A400E1F7FB01F0CFEFE5EDBFE4E0EEBFC0E622
:1000B400D1E00C94CB01AA93BA93EA93FA93EFB7E5
:1000C400EA931A930A930BB11CB1E02FEC7171F40B
:1000D400A42DB0E0A05ABE4F1C93E1E0F0E06E0EF8
:1000E4007F1E4394E0E8E41509F44424099119912E
:1000F400E991EFBFF991E991B991A9911895F89413
:100104006624772444245524789408950A93E52D8D
:10011400A62DB72DF0E0EA17FB07C8F7E52DF0E0B0
:10012400E05AFE4F00815394E0E8E51529F4552484
:10013400E0E8F0E06E1A7F0AE02F09910895E0E00C
:10014400EBBBEABBE8BBE7BBE5BBE7E3E4BBE0E052
:10015400E2BBE0E7E1BBE0E0E3BFE2BFECBFEFBD41
:10016400EEBDEDBDECBDE7BDE6BDEBBDEABDE9BD51
:10017400E8BDE2BDE5BDE4BDE3BDE5BFE4BFE9BF65
:10018400EBB9E8E9EAB9E6E8E0BDE0E0E0BDE6E2C3
:10019400E9B9E0E8E8B9E0E0E0BFA998959AAC9A3B
:1001A400AD9808951A930A9316E0A89800E00830D1
:1001B40038F40E944002A99A0000A9980F5FF7CF73
:1001C400A89A0991199108950E94B10222E0A89871
:1001D400AF81B88589859A85E8E00E948E02EF8315
:1001E400F88769877A8700E0083040F4220F0E947C
:1001F4004A02A99A0000A9980F5FF6CF00E00831DF
:1002040088F4EF81F88569857A850E949A02EF83E4
:10021400F88769877A870E944A02A99A0000A998F8
:100224000F5FEDCF10E0EC811E17A0F4E12FAD813C
:10023400BE81F0E0AE0FBF1F3C9100E0083040F4F7
:10024400330F0E944A02A99A0000A9980F5FF6CFC3
:100254001F5FE9CFA89A8CE291E00197F1F70E9421
:10026400B6022B9608950E94B20213E020E0A898EB
:10027400AB81BC818D819E81E8E00E948E02EB837C
:10028400FC836D837E8300E0083038F40E944002D2
:10029400A99A0000A9980F5FF7CF00E0083188F40D
:1002A400EB81FC816D817E810E949A02EB83FC8349
:1002B4006D837E830E944A02A99A0000A9980F5F69
:1002C400EDCF00E0083038F4A99A220F9B992F5FF4
:1002D400A9980F5FF7CFA89AE22F0E94B70227963A
:1002E40008951A930A9312E6A89800E0083038F4A7
:1002F4000E944002A99A0000A9980F5FF7CFA89A1C
:10030400E8E8F3E1FA93EA930E947D0209911991D6
:100314000895249784E0A0E0B0E0E4E5F0E00E94D2
:10032400BB02A881B9818A819B81A030E0E0BE072D
:10033400E1E08E07E0E09E0724F40E945302EF3FC1
:1003440009F00DC0E881F9816A817B81EF5FFF4F7D
:100354006F4F7F4FE883F9836A837B83E2CFA88161
:10036400B9818A819B81E0E0F0E061E070E00E9465
:100374009F0224960895AC98E0E3E4BBE0E0EAB978
:10038400AD98E8EEF3E0FA93EA930E947D02AD9A09
:100394000895249720E00E94A1007894839B5EC076
:1003A4000E9488000E2FE02FE03139F40E94D4001F
:1003B4000E9473010E945B024EC0E13121F50E944C
:1003C40088001E2F0E945F020E9481000E945B022F
:1003D400E12FA62DB72DF0E0AE17BF07C8F30E949A
:1003E400D400E881F9816A817B810E94A702E0E65A
:1003F400F1E0FA93EA931A930E94E6000E948100C6
:100404000E945B0228C0E23121F40E945B0221E0D9
:1004140022C0E33159F40E948B01E03011F0E5E58C
:1004240001C0EFEFEA930E943A0215C0E43151F49F
:100434000E945F020E945B020E945302EA930E94A0
:100444003A0209C00E948100EEEFEA930E943A0248
:100454000A930E943A02203009F4A2CFF8940E9431
:10046400BD01FFCF2496FFCF5F9BFECFECB1089573
:100474005D9BFECFE881ECB921960895110FE1E070
:1004840008F0E0E00E94AC02A5B3A2F9A5BB089570
:10049400E1E008F0E0E00E94AC02A5B3A2F9A5BB3C
:1004A4000895E881F9816A817B810E94A7020C94F6
:1004B4003501E5E5EA930C943A020E948800FF278F
:1004C40066277727E883F9836A837B830E94880001
:1004D400FF2766277727DF01CB01E8E00E948E0221
:1004E400A881B9818A819B810E948902E883F9836A
:1004F4006A837B830895E991F991309639F088EB0A
:100504009BE00197F1F7A8953197C9F70895EA2B75
:10051400FB2B682B792B0895EE230E2EFD01BC01D5
:1005240031F0EE0FFF1F661F771F0A94D1F708956D
:10053400EE0FFF1F661F771F0895EA17FB07680772
:100544007907E1E009F0EE2708957A936A93FA9324
:10055400EA930895E8940024E011689408953A9386
:100564002A931A930A9308953B812A811981088159
:100574000895AC0FBD1F05900D928A95E1F708957B
:00000001FF
